:030000000208995A
:0C089900787FE4F6D8FD7581070208E0C6
:101032000D0A0075736572007465737420666F72B1
:0710420020757365722E009A
:100C11009000AAEEF0A3EFF0A3EBF0A3EAF0A3E9B2
:010C2100F0E2
:100C2200E4A3F0A3F09000AFF0A3F09000AAE0FEDE
:100C3200A3E0FF9000AFE0FCA3E0FDC39FEE648061
:100C4200F8EC64809850339000ACE0FBA3E0FAA388
:100C5200E0F98D828C8374031201EE12022B120EC4
:100C6200BE7BFF7A107932120EBE9000B0E004F023
:0A0C720070B99000AFE004F080B10B
:010C7C002255
:0B0DFE00D2AF120FD612112E1210CD32
:100E090090009074FFF0A37410F0A37435F0A374EC
:100E1900FFF0A37410F0A3743AF0A374FFF0A37465
:0F0E29000CF0A37411F07B017A007990120F1B6B
:050E3800120EEA80FB30
:03000B00020DB92A
:100DB900C0E0C0F0C083C082C0D075D000C000C000
:100DC90001C002C003C004C005C006C007C2AF12FB
:100DD9000FF5121112120D71D2AFD007D006D0053E
:100DE900D004D003D002D001D000D0D0D082D0839B
:050DF900D0F0D0E03253
:03002300020D25A6
:100D2500C0E0C0F0C083C082C0D075D000C000C094
:100D350001C002C003C004C005C006C007C2AF3071
:100D45009805C298120E7C309905C299120003D2FB
:100D5500AFD007D006D005D004D003D002D001D043
:0C0D650000D0D0D082D083D0F0D0E0329B
:0711530053B1FC53B2FC2272
:100CD3001211537E007F297D007B017A007958121F
:100CE30002617D4B7C00C3E49DFDE49CFCE59854CC
:100CF3003F4440F598C28E538EFE5389BF5389CF2C
:100D0300438E40ECF58DAF05EFF58BC2AB5389BF36
:100D1300538FFDD28ED29CD2AC53B7EFD2BC53A229
:010D23003F90
:010D240022AC
:10110200900080E030E10654FDF07F01227F002252
:0A112E00121153120CD3E4FEFF224D
:1010F1008F99900080E04401F0900080E020E0F9B9
:0111010022CB
:100E3D009000B7EBF0A3EAF0A3E9F0A3ECF0A3ED7B
:010E4D00F0B4
:100E4E00E4FDFCD39000BBE09D9000BAE09C401DF9
:100E5E009000B7E0FBA3E0FAA3E0F98D828C831239
:0D0E6E000135FF1210F10DBD00010C80D602
:010E7B002254
:0B069C009000BCEBF0A3EAF0A3E9F033
:1006A70090007AE0FEA3E0FFC3900079E09FFF90FF
:1006B7000078E09EAB07FA121102EF7003FEFF22EB
:1006C700D3EB9DEA9C4006AE04AF058004AE02AFB3
:1006D700039000BFEEF0A3EFF09000BFE0FEA3E0B1
:1006E700FF90007AE0FCA3E02458F974003CFA7B01
:1006F70001C003C0029000BCE0FBA3E0FAA3E0F84E
:10070700AC02AD03D002D0031200F69000BFE0FEAA
:10071700A3E0FF90007BE02FF090007AE03EF0909E
:100727000078E0FEA3E0FFC390007BE09F90007A93
:10073700E09E400F7E007F247D007B017A00795880
:0B0747001202619000BFE0FEA3E0FF83
:010752002284
:100D71009000C61201B1900080E020E13A90007C21
:100D8100E0F8A3E0F9A3E0FAA3E0FB9000C6E0FCE1
:100D9100A3E0FDA3E0FEA3E0C39BFFEE9AFEED9965
:100DA100FDEC98FCE47B02FAF9F8C31201A05007AC
:080DB100900080E04402F022F2
:100E7C00900078E475F00112018AFE745825F0F5A3
:100E8C008274003EF583E599F0C3900079E09420DC
:100E9C00900078E094004004E4F0A3F0900080E02F
:0C0EAC0054FDF012111290007C0201B104
:08000300900080E054FEF022A1
:100FD600438E805389F0758A66758C7EC28DD28C5D
:0F0FE600D2A9D28C9000CA1201BD0000000022D7
:0F1112009000CAE0FCA3E0FDA3E0FEA3E0FF22F3
:060C7D009000A21201B17B
:100C83009000CAE0FCA3E0FDA3E0FEA3E0FF900018
:100C9300A61201B19000A6E0F8A3E0F9A3E0FAA33D
:100CA300E0FB9000CAE0FCA3E0FDA3E0FEA3E0C3E9
:100CB3009BFFEE9AFEED99FDEC98FC9000A2E0F804
:0F0CC300A3E0F9A3E0FAA3E0FBD31201A050C510
:010CD20022FF
:100FF5009000CAE0FCA3E0FDA3E0FEA3E02401FF0E
:0F100500E43EFEE43DFDE43CFC9000CA0201B174
:1003E5001B5B314300081B5B731B5B4B001B5B7581
:1003F500001B5B731B5B4B001B5B751B5B31430079
:100405001B5B313B33326D006D797368203E2000F4
:100415001B5B30306D00082008000D0A001B5B31A6
:100425003B33316D00220022206973206E6F7420EA
:10043500666F756E642E0D0A0009202D2000616C13
:100445007068612076312E300D0A001B5B324A1B25
:100455005B480068656C70006C69737420616C6C36
:1004650020636F6D6D616E64732E00766572007327
:10047500686F772076657273696F6E20696E666F37
:10048500726D6174696F6E007669730073657420AF
:100495006F75747075742076697369626C652E204A
:1004A500303A20756E76697369626C652C20313A35
:1004B5002076697369626C652E00636C65617200F4
:1004C500636C65617220746865207368656C6C2067
:1004D5006F757470757420616E64207265736574D0
:1004E50020637572736F72277320706F73697469F7
:1004F5006F6E2E005B30303A30303A30305D200080
:06115A004300000000004C
:10107700900057E0540324FE6006240270078002A4
:061087007F2A1210DF2297
:060EB8007BFF7A04791FA4
:100EBE009000D2EBF0A3EAF0A3E9F09000D2E0FBB1
:100ECE00A3E0FAA3E0F912011CFF600F1210779055
:0C0EDE0000D3E475F00112017480E022E2
:100BA00078817C007D017BFF7A0479F97E007F0CDF
:100BB0001200F67B017A00798D12114A7F01EFD382
:100BC00094075044EF75F00384FE248DF582E434DD
:100BD00000F583E075F00A84FD74812FF582E4341A
:100BE00000F583E02DF0748D2EF582E43400F5835A
:100BF000E075F00A8474822FF582E43400F583E016
:100C000025F0F00F0F0F80B67B017A007981020E7C
:010C1000BE25
:100B2D009000B1EBF0A3EAF0A3E9F09000B1E0FB87
:100B3D00A3E0FAA3E0F912011CFF60279000B4E0D6
:100B4D00FBA3E0FAA3E0F912011CB507169000B261
:100B5D00E475F0011201749000B5E475F001120115
:100B6D007480C89000B4E0FBA3E0FAA3E0F9120191
:100B7D001CFF9000B1E0FBA3E0FAA3E0F912011C09
:100B8D006F7E0060047F0180027F00C3E49FFFE45D
:030B9D009EFE2297
:0B0753009000D5EBF0A3EAF0A3E9F062
:10075E00E4FF9000D5E0FBA3E0FAA3E04A4B70273C
:10076E00900000E0FBA3E0FAA3E04A4B7004FBFA12
:10077E00F922900000E0F9A3E0FAA3E09000D5C9B9
:10078E00F0A3EAF0A3E9F09000D5E0FBA3E0FAA312
:10079E00E0F912011C60106D600D9000D6E475F04A
:1007AE00011201740F80E09000D5E0FBA3E0FAA3E4
:1007BE00E0F912011CFEB50510E41201629000D69C
:1007CE0075F0011201740F80DEEE900000600AEBEE
:1007DE00F0A3EAF0A3E9F08006E4F0A3F0A3F09012
:1007EE0000D5E0FBA3E0FAA3E0C39FF9EA9400FA78
:0107FE0022D8
:101049007E007F027D007B017A00793A120261906D
:07105900003CE054FBF02213
:1010B900900038E0FFA3E0C39F5008E004F07F08E8
:0410C9001210DF2200
:10108D00900039E0D39400400CE014F07BFF7A031C
:06109D0079E5120EBE22EF
:1009AD00900039E0FF900038E0C39FFF9000DDF02C
:1009BD00E4FEEF606F7BFF7A0379EA120EBE9000C2
:1009CD00DDE0FE900039E0FD9000DDE0FF2DFDE45F
:1009DD0033FCEEC39DEC6480F8748098501B742733
:1009ED002EF582E43400F583E0FD74262EF582E4C5
:1009FD003400F583EDF00E80CA900038E02426F522
:100A0D0082E43400F583E4F074262FF9E43400FA1F
:100A1D007B01120EBE7BFF7A0379F2120EBE90009F
:040A2D0038E014F0A9
:010A310022A2
:050925009000DBEFF083
:10092A00900039E0FF900038E0C39F9000DCF0E4CB
:10093A00FF7BFF7A0379F6120EBE900038E0FF9033
:10094A0000DCE0FEEFD39E401B74262FF582E434D0
:10095A0000F583E0FE74272FF582E43400F583EE78
:10096A00F01F80DB900038E02428F582E43400F59B
:10097A0083E4F09000DBE0FFA3E0FE2427F582E4A5
:10098A003400F583EFF074272EF9E43400FA7B0182
:10099A00120EBE7BFF7A0379FD120EBE900038E07C
:0209AA0004F057
:0109AC002228
:100F470090003AE02FF0A3E004F090003AE0244646
:100F5700600804700812108D80031210B990003BCE
:080F6700E0B40303121049225B
:100F6F007E007F137D007B017A00792712026112C8
:100F7F001049E490003CF0FE7F0AFD7B017A007976
:040F8F004D020261AC
:101014007BFF7A047905120EBE120BA07BFF7A04C3
:0E102400790D120EBE7BFF7A047915020EBE06
:100FB500900038E0D394004017E014F02427F58220
:100FC500E43400F583E4F07BFF7A04791B120EBE4E
:010FD50022F9
:1007FF007D201207539000D8EBF0A3EAF0A3E9F0A5
:10080F00E490004DF09000D8E0FBA3E0FAA3E04A9B
:10081F004B60767E007F097D007B017A00794E1256
:10082F0002619000D8E0F9A3E0FAA3E090004EC96E
:10083F00804E9000D8E0FBA3E0FAA3E04A4B60495A
:10084F0090004DE004F0C364809483503C7B007AA9
:10085F000079007D201207539000D8EBF0A3EAF047
:10086F00A3E9F09000D8E0FBA3E0FAA3E0F9900031
:10087F004DE075F003A4244EF582E43400F583EBCC
:09088F00F0A3EAF0A3E9F080A94E
:01089800223D
:1010A300900038E0FE04F074272EF582E43400F556
:0610B30083EFF00210774C
:1002B400E4900099F0A3F0F9A3C9F0A3F0A3E9F046
:1002C400900038E070030203E4E4900099F0900099
:0F02D4004CE0FF900099E0FEC39F400302037FC0
:1002E300EE75F003A4243DF582E43400F583E0F9D0
:1002F300A3E0FAA3E090009EC9F0A3EAF0A3E9F01B
:10030300E4A3F0F090009EE0FBA3E0FAA3E0F9126F
:10031300020B9000A1E0FFF582758300120135FE08
:1003230074272FF582E43400F583E0B5060A6008EC
:100333009000A1E004F080CC900038E0FF9000A191
:10034300E0B5072F120EB890009EE0FBA3E0FAA3DE
:10035300E0F912020B120EBE90009AE004F0900036
:100363009EE0F9A3E0FAA3E090009BC9F0A3EAF0B2
:03037300A3E9F00B
:10037600900099E004F00202D290009AE0147054C2
:1003860090009BE0FBA3E0FAA3E0F912020B120037
:100396000E90009EEFF0120EB812101490009BE023
:1003A600FBA3E0FAA3E0F912020B120EBE90009E28
:1003B600E0FF7E0090009BE0FBA3E0FAA3E0F912C9
:1003C600020B78277C007D011200F690009EE090DB
:0303D6000038F0FC
:0B03D90022120F6F90003CE04402F085
:0103E40022F6
:100AB4001210609000DEEFF0606E24F76036146070
:100AC4003624FD603224F26014249C600424777080
:100AD4002E900039E07003020FB50209AD90003C7E
:100AE400E04404F09000DEE0FF90003AE02FF0A331
:100AF400E004F0220202B490003CE04402F02290B0
:100B0400003CE020E21A900038E0C394105019A38E
:100B1400E09000DE7005E0FF0210A3E0FF0209256B
:080B24009000DEE0FF120F4714
:010B2C0022A6
:10050500E49000CEF090004DE070030205DFE4902A
:1005150000CEF090004CE0FF9000CEE0FEC39F407F
:04052500030205AD1B
:10052900EE75F003A4243DF582E43400F583E0FB85
:10053900A3E0FAA3E0F99000CFEBF0A3EAF0A3E976
:10054900F012020BC002C00190004EE0F9A3E0FADC
:10055900A3E09000B4C9F0A3EAF0A3E9F0D001D078
:1005690002120B2DEF4E703390004DE0FF3395E0F2
:10057900FE7B017A00794EC003C002C0019000CF12
:10058900E0FBA3E0FAA3E0F990000612022B8982AE
:0B0599008A83D001D002D00302025F71
:1005A4009000CEE004F00205187BFF7A0479221251
:1005B4000EBE7BFF7A04792A120EBE90004EE0FB39
:1005C400A3E0FAA3E0F9120EBE7BFF7A04792C12A1
:0B05D4000EBE7BFF7A047915120EBEEC
:0105DF0022F9
:100A3200E49000C1F0A3F09000C1F0A3F090004C4C
:100A4200E0FF9000C1E0FCA3E0FDC39F7480F8ECDE
:050A5200648098505C77
:100A570090003D75F003ED1201FFEC75F003A4253E
:100A670083F583E0FBA3E0FAA3E0F99000C3EBF082
:100A7700A3EAF0A3E9F012020B120EBE7BFF7A0481
:100A8700793E120EBE9000C3E0FBA3E0FAA3E0F9A3
:0C0A970090000312022B120EBE120EB8CB
:100AA3009000C2E004F070949000C1E004F0808CE8
:010AB3002220
:091138007BFF7A047943020EBE2C
:100F9300D3EF9401EE648094804016900003120214
:100FA3002B12011C24D070047F0180027F001211D8
:020FB3002122F9
:091141007BFF7A047950020EBE16
:1005E00090000374FFF0A37404F0A37458F0A37494
:1005F000FFF0A37404F0A3745DF0A374FFF0A37480
:0F0600000AF0A37432F07B017A007903120F1B0A
:10060F0090000C74FFF0A37404F0A37470F0A37443
:10061F00FFF0A37404F0A37474F0A374FFF0A37439
:0F062F0011F0A37438F07B017A00790C120F1BC5
:10063E0090001574FFF0A37404F0A3748DF0A374EE
:10064E00FFF0A37404F0A37491F0A374FFF0A374ED
:0F065E000FF0A37493F07B017A007915120F1B34
:10066D0090001E74FFF0A37404F0A374BFF0A37484
:10067D00FFF0A37404F0A374C5F0A374FFF0A3748A
:0F068D0011F0A37441F07B017A00791E020F1B5C
:1010CD007E007F317D007B017A007927120261025B
:0210DD0005E02C
:100EEA0090003CE0FF20E0064401F0121014120AC0
:100EFA00B490003CE030E118120EB8900038E0607F
:100F0A000C7B017A0079271207FF120505120F6F71
:010F1A0022B4
:100F1B0090004CE0C39405501EE0FF04F0EF75F019
:100F2B0003A4243DF582E43400F583EBF0A3EAF04F
:0C0F3B00A3E9F0E4FEFF227EFF7FFF220E
:0D112100EF5403FF900057E054FC4FF02204
:10106000E49000DFF07B017A0079DF7D01FC12065D
:061070009C9000DFE0FF90
:011076002257
:1010DF009000E0EFF07B017A0079E07D017C000267
:0210EF000E3DB4
:09114A007E007F037D00020261BA
:1008A500020DFEE493A3F8E493A34003F68001F25E
:1008B50008DFF48029E493A3F85407240CC8C33354
:1008C500C4540F4420C8834004F456800146F6DF23
:1008D500E4800B010204081020408090115AE47E48
:1008E500019360BCA3FF543F30E509541FFEE49318
:1008F500A360010ECF54C025E060A840B8E493A3DF
:10090500FAE493A3F8E493A3C8C582C8CAC583CA09
:10091500F0A3C8C582C8CAC583CADFE9DEE780BEC1
:01116000008E
:10002600E709F608DFFA8046E709F208DFFA803EBC
:1000360088828C83E709F0A3DFFA8032E309F608A9
:10004600DFFA8078E309F208DFFA807088828C8311
:10005600E309F0A3DFFA806489828A83E0A3F608C5
:10006600DFFA805889828A83E0A3F208DFFA804C9F
:1000760080D280FA80C680D4806980F28033801076
:1000860080A680EA809A80A880DA80E280CA8033DF
:1000960089828A83ECFAE493A3C8C582C8CCC58357
:1000A600CCF0A3C8C582C8CCC583CCDFE9DEE78027
:1000B6000D89828A83E493A3F608DFF9ECFAA9F0A6
:1000C600EDFB2289828A83ECFAE0A3C8C582C8CCFC
:1000D600C583CCF0A3C8C582C8CCC583CCDFEADE15
:1000E600E880DB89828A83E493A3F208DFF980CC77
:1000F60088F0EF60010E4E60C388F0ED2402B40470
:100106000050B9F582EB2402B4040050AF23234516
:06011600822390007673C5
:10011C00BB010689828A83E0225002E722BBFE02E1
:09012C00E32289828A83E4932214
:10013500BB010CE58229F582E5833AF583E022507F
:1001450006E92582F8E622BBFE06E92582F8E222C9
:0D015500E58229F582E5833AF583E49322E3
:10016200BB010689828A83F0225002F722BBFE017C
:02017200F32276
:10017400C5F0F8A3E028F0C5F0F8E5821582700216
:060184001583E038F022B3
:10018A00A3F8E0C5F025F0F0E58215827002158328
:06019A00E0C838F0E82285
:1001A000EB9FF5F0EA9E42F0E99D42F0E89C45F0B5
:0101B000222C
:0C01B100ECF0A3EDF0A3EEF0A3EFF022C1
:1001BD00A8828583F0D083D0821201D41201D4128B
:1001CD0001D41201D4E473E493A3C583C5F0C583B0
:1001DD00C8C582C8F0A3C583C5F0C583C8C582C88C
:0101ED0022EF
:1001EE00F5F0C582A4C582C5F0C583A42583F58329
:0101FE0022DE
:0C01FF00A42582F582E5F03583F583220B
:10020B00BB010789828A830202965005E9F8020234
:10021B008DBBFE05E9F802029F89828A830202A840
:10022B00BB010DE58229F582E5833AF5830202963F
:10023B005007E92582F802028DBBFE07E92582F8FB
:10024B0002029FE58229F582E5833AF5830202A833
:06025B008A838982E4732E
:10000E00E4FFFE12011C600C0FEF70010E09E97087
:05001E00F20A80EF2250
:10026100EF4E6012EF60010EEDBB010B89828A83B4
:10027100F0A3DFFCDEFA2289F05007F709DFFCA9C1
:0C028100F022BBFEFCF309DFFCA9F02218
:09028D00E6FB08E6FA08E6F92296
:09029600E0FBA3E0FAA3E0F92269
:09029F00E2FB08E2FA08E2F92290
:0C02A800E493FB740193FA740293F922B2
:00000001FF
